{
  "_format": "hh-sol-artifact-1",
  "contractName": "Todo",
  "sourceName": "contracts/Todo.sol",
  "abi": [
    {
      "inputs": [],
      "stateMutability": "nonpayable",
      "type": "constructor"
    },
    {
      "anonymous": false,
      "inputs": [
        {
          "indexed": false,
          "internalType": "address",
          "name": "recipient",
          "type": "address"
        },
        {
          "indexed": false,
          "internalType": "uint256",
          "name": "taskId",
          "type": "uint256"
        }
      ],
      "name": "AddTask",
      "type": "event"
    },
    {
      "anonymous": false,
      "inputs": [
        {
          "indexed": false,
          "internalType": "uint256",
          "name": "taskId",
          "type": "uint256"
        },
        {
          "indexed": false,
          "internalType": "bool",
          "name": "isDeleted",
          "type": "bool"
        }
      ],
      "name": "DeleteTask",
      "type": "event"
    },
    {
      "inputs": [
        {
          "internalType": "string",
          "name": "_text",
          "type": "string"
        }
      ],
      "name": "addTask",
      "outputs": [],
      "stateMutability": "nonpayable",
      "type": "function"
    },
    {
      "inputs": [
        {
          "internalType": "uint256",
          "name": "taskId",
          "type": "uint256"
        }
      ],
      "name": "deleteTask",
      "outputs": [],
      "stateMutability": "nonpayable",
      "type": "function"
    },
    {
      "inputs": [],
      "name": "getAllTasks",
      "outputs": [
        {
          "components": [
            {
              "internalType": "uint256",
              "name": "id",
              "type": "uint256"
            },
            {
              "internalType": "string",
              "name": "text",
              "type": "string"
            },
            {
              "internalType": "address",
              "name": "recipient",
              "type": "address"
            },
            {
              "internalType": "bool",
              "name": "isDeleted",
              "type": "bool"
            }
          ],
          "internalType": "struct Todo.Task[]",
          "name": "",
          "type": "tuple[]"
        }
      ],
      "stateMutability": "view",
      "type": "function"
    },
    {
      "inputs": [],
      "name": "getMyTasks",
      "outputs": [
        {
          "components": [
            {
              "internalType": "uint256",
              "name": "id",
              "type": "uint256"
            },
            {
              "internalType": "string",
              "name": "text",
              "type": "string"
            },
            {
              "internalType": "address",
              "name": "recipient",
              "type": "address"
            },
            {
              "internalType": "bool",
              "name": "isDeleted",
              "type": "bool"
            }
          ],
          "internalType": "struct Todo.Task[]",
          "name": "",
          "type": "tuple[]"
        }
      ],
      "stateMutability": "view",
      "type": "function"
    },
    {
      "inputs": [],
      "name": "owner",
      "outputs": [
        {
          "internalType": "address",
          "name": "",
          "type": "address"
        }
      ],
      "stateMutability": "view",
      "type": "function"
    },
    {
      "inputs": [
        {
          "internalType": "uint256",
          "name": "",
          "type": "uint256"
        }
      ],
      "name": "tasks",
      "outputs": [
        {
          "internalType": "uint256",
          "name": "id",
          "type": "uint256"
        },
        {
          "internalType": "string",
          "name": "text",
          "type": "string"
        },
        {
          "internalType": "address",
          "name": "recipient",
          "type": "address"
        },
        {
          "internalType": "bool",
          "name": "isDeleted",
          "type": "bool"
        }
      ],
      "stateMutability": "view",
      "type": "function"
    }
  ],
  "bytecode": "0x608060405234801561001057600080fd5b50336000806101000a81548173ffffffffffffffffffffffffffffffffffffffff021916908373ffffffffffffffffffffffffffffffffffffffff1602179055506113c2806100606000396000f3fe608060405234801561001057600080fd5b50600436106100625760003560e01c8063560f31921461006757806367238562146100835780636e13f8181461009f578063779900b4146100bd5780638d977672146100db5780638da5cb5b1461010e575b600080fd5b610081600480360381019061007c9190610c92565b61012c565b005b61009d60048036038101906100989190610e05565b610362565b005b6100a76104f6565b6040516100b49190611066565b60405180910390f35b6100c5610813565b6040516100d29190611066565b60405180910390f35b6100f560048036038101906100f09190610c92565b61097f565b60405161010594939291906110ff565b60405180910390f35b610116610a74565b604051610123919061114b565b60405180910390f35b3373ffffffffffffffffffffffffffffffffffffffff166002600083815260200190815260200160002060009054906101000a900473ffffffffffffffffffffffffffffffffffffffff1673ffffffffffffffffffffffffffffffffffffffff16146101cd576040517f08c379a00000000000000000000000000000000000000000000000000000000081526004016101c4906111d8565b60405180910390fd5b60018080805490506101df9190611227565b815481106101f0576101ef61125b565b5b9060005260206000209060030201600182815481106102125761021161125b565b5b906000526020600020906003020160008201548160000155600182018160010190805461023e906112b9565b610249929190610a98565b506002820160009054906101000a900473ffffffffffffffffffffffffffffffffffffffff168160020160006101000a81548173ffffffffffffffffffffffffffffffffffffffff021916908373ffffffffffffffffffffffffffffffffffffffff1602179055506002820160149054906101000a900460ff168160020160146101000a81548160ff02191690831515021790555090505060018054806102f3576102f26112eb565b5b60019003818190600052602060002090600302016000808201600090556001820160006103209190610b25565b6002820160006101000a81549073ffffffffffffffffffffffffffffffffffffffff02191690556002820160146101000a81549060ff02191690555050905550565b60006001805490509050600060405180608001604052808381526020018481526020013373ffffffffffffffffffffffffffffffffffffffff16815260200160001515815250905060018190806001815401808255809150506001900390600052602060002090600302016000909190919091506000820151816000015560208201518160010190805190602001906103fc929190610b65565b5060408201518160020160006101000a81548173ffffffffffffffffffffffffffffffffffffffff021916908373ffffffffffffffffffffffffffffffffffffffff16021790555060608201518160020160146101000a81548160ff0219169083151502179055505050336002600084815260200190815260200160002060006101000a81548173ffffffffffffffffffffffffffffffffffffffff021916908373ffffffffffffffffffffffffffffffffffffffff1602179055507f1f54e1ba1832d428fbd7e7792beaf62b1fc5a382c207ffd614209c1413e94fda33836040516104e992919061131a565b60405180910390a1505050565b6060600060018054905067ffffffffffffffff81111561051957610518610cda565b5b60405190808252806020026020018201604052801561055257816020015b61053f610beb565b8152602001906001900390816105375790505b5090506000805b600180549050811015610759573373ffffffffffffffffffffffffffffffffffffffff16600182815481106105915761059061125b565b5b906000526020600020906003020160020160009054906101000a900473ffffffffffffffffffffffffffffffffffffffff1673ffffffffffffffffffffffffffffffffffffffff16141561074657600181815481106105f3576105f261125b565b5b906000526020600020906003020160405180608001604052908160008201548152602001600182018054610626906112b9565b80601f0160208091040260200160405190810160405280929190818152602001828054610652906112b9565b801561069f5780601f106106745761010080835404028352916020019161069f565b820191906000526020600020905b81548152906001019060200180831161068257829003601f168201915b505050505081526020016002820160009054906101000a900473ffffffffffffffffffffffffffffffffffffffff1673ffffffffffffffffffffffffffffffffffffffff1673ffffffffffffffffffffffffffffffffffffffff1681526020016002820160149054906101000a900460ff16151515158152505083838151811061072c5761072b61125b565b5b6020026020010181905250818061074290611343565b9250505b808061075190611343565b915050610559565b5060008167ffffffffffffffff81111561077657610775610cda565b5b6040519080825280602002602001820160405280156107af57816020015b61079c610beb565b8152602001906001900390816107945790505b50905060005b82811015610809578381815181106107d0576107cf61125b565b5b60200260200101518282815181106107eb576107ea61125b565b5b6020026020010181905250808061080190611343565b9150506107b5565b5080935050505090565b60606001805480602002602001604051908101604052809291908181526020016000905b82821015610976578382906000526020600020906003020160405180608001604052908160008201548152602001600182018054610874906112b9565b80601f01602080910402602001604051908101604052809291908181526020018280546108a0906112b9565b80156108ed5780601f106108c2576101008083540402835291602001916108ed565b820191906000526020600020905b8154815290600101906020018083116108d057829003601f168201915b505050505081526020016002820160009054906101000a900473ffffffffffffffffffffffffffffffffffffffff1673ffffffffffffffffffffffffffffffffffffffff1673ffffffffffffffffffffffffffffffffffffffff1681526020016002820160149054906101000a900460ff16151515158152505081526020019060010190610837565b50505050905090565b6001818154811061098f57600080fd5b90600052602060002090600302016000915090508060000154908060010180546109b8906112b9565b80601f01602080910402602001604051908101604052809291908181526020018280546109e4906112b9565b8015610a315780601f10610a0657610100808354040283529160200191610a31565b820191906000526020600020905b815481529060010190602001808311610a1457829003601f168201915b5050505050908060020160009054906101000a900473ffffffffffffffffffffffffffffffffffffffff16908060020160149054906101000a900460ff16905084565b60008054906101000a900473ffffffffffffffffffffffffffffffffffffffff1681565b828054610aa4906112b9565b90600052602060002090601f016020900481019282610ac65760008555610b14565b82601f10610ad75780548555610b14565b82800160010185558215610b1457600052602060002091601f016020900482015b82811115610b13578254825591600101919060010190610af8565b5b509050610b219190610c2b565b5090565b508054610b31906112b9565b6000825580601f10610b435750610b62565b601f016020900490600052602060002090810190610b619190610c2b565b5b50565b828054610b71906112b9565b90600052602060002090601f016020900481019282610b935760008555610bda565b82601f10610bac57805160ff1916838001178555610bda565b82800160010185558215610bda579182015b82811115610bd9578251825591602001919060010190610bbe565b5b509050610be79190610c2b565b5090565b60405180608001604052806000815260200160608152602001600073ffffffffffffffffffffffffffffffffffffffff1681526020016000151581525090565b5b80821115610c44576000816000905550600101610c2c565b5090565b6000604051905090565b600080fd5b600080fd5b6000819050919050565b610c6f81610c5c565b8114610c7a57600080fd5b50565b600081359050610c8c81610c66565b92915050565b600060208284031215610ca857610ca7610c52565b5b6000610cb684828501610c7d565b91505092915050565b600080fd5b600080fd5b6000601f19601f8301169050919050565b7f4e487b7100000000000000000000000000000000000000000000000000000000600052604160045260246000fd5b610d1282610cc9565b810181811067ffffffffffffffff82111715610d3157610d30610cda565b5b80604052505050565b6000610d44610c48565b9050610d508282610d09565b919050565b600067ffffffffffffffff821115610d7057610d6f610cda565b5b610d7982610cc9565b9050602081019050919050565b82818337600083830152505050565b6000610da8610da384610d55565b610d3a565b905082815260208101848484011115610dc457610dc3610cc4565b5b610dcf848285610d86565b509392505050565b600082601f830112610dec57610deb610cbf565b5b8135610dfc848260208601610d95565b91505092915050565b600060208284031215610e1b57610e1a610c52565b5b600082013567ffffffffffffffff811115610e3957610e38610c57565b5b610e4584828501610dd7565b91505092915050565b600081519050919050565b600082825260208201905092915050565b6000819050602082019050919050565b610e8381610c5c565b82525050565b600081519050919050565b600082825260208201905092915050565b60005b83811015610ec3578082015181840152602081019050610ea8565b83811115610ed2576000848401525b50505050565b6000610ee382610e89565b610eed8185610e94565b9350610efd818560208601610ea5565b610f0681610cc9565b840191505092915050565b600073ffffffffffffffffffffffffffffffffffffffff82169050919050565b6000610f3c82610f11565b9050919050565b610f4c81610f31565b82525050565b60008115159050919050565b610f6781610f52565b82525050565b6000608083016000830151610f856000860182610e7a565b5060208301518482036020860152610f9d8282610ed8565b9150506040830151610fb26040860182610f43565b506060830151610fc56060860182610f5e565b508091505092915050565b6000610fdc8383610f6d565b905092915050565b6000602082019050919050565b6000610ffc82610e4e565b6110068185610e59565b93508360208202850161101885610e6a565b8060005b8581101561105457848403895281516110358582610fd0565b945061104083610fe4565b925060208a0199505060018101905061101c565b50829750879550505050505092915050565b600060208201905081810360008301526110808184610ff1565b905092915050565b61109181610c5c565b82525050565b600082825260208201905092915050565b60006110b382610e89565b6110bd8185611097565b93506110cd818560208601610ea5565b6110d681610cc9565b840191505092915050565b6110ea81610f31565b82525050565b6110f981610f52565b82525050565b60006080820190506111146000830187611088565b818103602083015261112681866110a8565b905061113560408301856110e1565b61114260608301846110f0565b95945050505050565b600060208201905061116060008301846110e1565b92915050565b7f4f6e6c79206f776e6572206f662074686973207461736b2063616e2064656c6560008201527f7465206974000000000000000000000000000000000000000000000000000000602082015250565b60006111c2602583611097565b91506111cd82611166565b604082019050919050565b600060208201905081810360008301526111f1816111b5565b9050919050565b7f4e487b7100000000000000000000000000000000000000000000000000000000600052601160045260246000fd5b600061123282610c5c565b915061123d83610c5c565b9250828210156112505761124f6111f8565b5b828203905092915050565b7f4e487b7100000000000000000000000000000000000000000000000000000000600052603260045260246000fd5b7f4e487b7100000000000000000000000000000000000000000000000000000000600052602260045260246000fd5b600060028204905060018216806112d157607f821691505b602082108114156112e5576112e461128a565b5b50919050565b7f4e487b7100000000000000000000000000000000000000000000000000000000600052603160045260246000fd5b600060408201905061132f60008301856110e1565b61133c6020830184611088565b9392505050565b600061134e82610c5c565b91507fffffffffffffffffffffffffffffffffffffffffffffffffffffffffffffffff821415611381576113806111f8565b5b60018201905091905056fea26469706673582212206f8a69d6c6676ef25a222af01ef03d1e554be7c4fea5bffd2d9b1a0da95ab0ed64736f6c634300080b0033",
  "linkReferences": {},
  "deployedLinkReferences": {}
}